S01D0000466C69676874416E676C65436F6E74726F6C6C65722E737265639E
S1130000E1C100000C94BC160C94ED160C941E1760
S11300100C944F170C9480170C94B1170C94E2179E
S11300200C94131800C20000FEC10000FCC10000C3
S1130030FAC100000C944814F6C10000F4C1000099
S1130040F2C10000F0C10000EEC10000ECC10000EC
S1130050EAC10000E8C10000E6C100000C942019C8
S1130060E2C100000C94890C0C94C50CDCC10000A6
S1130070DAC10000D8C10000D6C10000D4C100001C
S1130080D2C10000D0C10000CEC100000C9487137F
S11300900C94240D0C94600DC6C100000C949E15A4
S11300A0C2C10000C0C10000BEC10000BCC100004C
S11300B0BAC10000B8C10000B6C10000B4C100005C
S11300C0B2C10000B0C10000AEC100000C94BF0D6D
S11300D00C94FB0DA8C100000C945A0E0C94960EBF
S11300E0A2C10000A616A916A916A916A916A91632
S11300F0A916A916C015A916A916A916A916A916EE
S1130100A916A916C015A916A916A916A916A916DD
S1130110A916A916C815A916A916A916A916A916C5
S1130120A916A916ED15A916A916A916A916A91690
S1130130A916A916C815A916A916A916A916A916A5
S1130140A916A916F215A916A916A916A916A9166B
S1130150A916A916F715A916A916A916A916A91656
S1130160A916A9160816A916A916A916A916A91634
S1130170A916A9163116A916A916A916A916A916FB
S1130180A916A916FC15A916A916A916A916A91621
S1130190A916A9161616A916A916A916A916A916F6
S11301A0A916A9163316A916A916A916A916A916C9
S11301B0A916A9163316A916A916A916A916A916B9
S11301C0A916A9163316A916A916A916A916A916A9
S11301D0A916A9163316A916A916A916A916A91699
S11301E0A916A9163C16A916A916A916A916A91680
S11301F0A916A9166D16A916A916A916A916A9163F
S1130200A916A9163C16A916A916A916A916A9165F
S1130210A916A9166D16A916A916A916A916A9161E
S1130220A916A9165416A916A916A916A916A91627
S1130230A916A9167116A916A916A916A916A916FA
S1130240A916A9167116A916A916A916A916A916EA
S1130250A916A9168616A916A916A916A916A916C5
S1130260A916A916A016A916A916A916A916A9169B
S1130270A916A916A0163A1A3E1A281A2E1A341AC2
S1130280831A421A481A4E1A541A5A1A601A661ACB
S11302906C1A831A721A781A7E1A084AD73B3BCE14
S11302A0016E84BCBFFDC12F3D6C74319ABD568371
S11302B03DDA3D00C77F11BED9E4BB4C3E916BAA29
S11302C0AABE000000803F000200000A0B02090CD5
S11302D00D0E0807030401000000000000000000E8
S11302E0000000000000000000000000000000000A
S11302F000000000001211100000000000000000C7
S113030000000000000000000000000000000001E8
S11303100210202008081020401020408002010212
S113032001080402010102040810204080804020DA
S11303301008040201800402018040201008040215
S11303400108040201010204081020408001020493
S1130350081020408005050505070508080808025F
S11303600202020A0A08080404040401010101014A
S11303700101010303030303030303040707070C39
S11303800C0C0C0C0C0C0C020202020606060606EF
S11303900606060B0B0B0B0B0B0B0B0000220025A8
S11303A00028002B002E003100340002010000055B
S11303B00108010B01004B06F70C920D2D0EC80E1F
S11303C031111C1911241FBECFEFD1E2DEBFCDBF06
S11303D000E00CBF12E0A0E0B2E0E6E5FCE300E0E0
S11303E00BBF02C007900D92A03DB107D9F727E0DB
S11303F0A0EDB2E001C01D92A932B207E1F711E00D
S1130400C2EED1E000E006C021970109802FFE0171
S11304100E94081ECB3DD10780E00807A9F70E947F
S11304203D110C94291EECCD81E080936D03089559
S11304304F925F926F927F928F929F92AF92BF92F0
S1130440CF92DF92EF92FF920F931F93CF93DF939C
S1130450CDB7DEB760970FB6F894DEBF0FBECDBF41
S113046069837A838B839C8329013A01ED86FE8616
S11304700F87188B8601F601C480D580E680F7804B
S113048080809180A280B380A5019401C701B60148
S11304900E94B51A6D837E838F839887F8016085E7
S11304A07185072E000C880B990B0E941A1CA7015A
S11304B096010E94FA1C69877A878B879C87298119
S11304C03A814B815C81C501B4010E94FA1C9B01F5
S11304D0AC0169857A858B859C850E94B51A2D812E
S11304E03E814F8158850E947F1B0E94E71B6983D0
S11304F07A838B839C8329813A81F8013187208711
S113050062857385072E000C880B990B0E941A1CB8
S11305109B01AC01C701B6010E94FA1C69877A8766
S11305208B879C87A3019201C501B4010E94FA1C28
S11305309B01AC0169857A858B859C850E94B51ADF
S11305402D813E814F8158850E947F1B0E94E71BAD
S11305502B013C01F8017387628764857585072E3A
S1130560000C880B990B0E941A1C9B01AC01C7015B
S1130570B6010E94FA1C6B017C012D853E854F85D6
S11305805889C501B4010E94FA1C9B01AC01C70142
S1130590B6010E94B51A2D813E814F8158850E9473
S11305A07F1B0E94E71BF8017587648729813A81C4
S11305B037872687518A408A738B628B60960FB681
S11305C0F894DEBF0FBECDBFDF91CF911F910F9185
S11305D0FF90EF90DF90CF90BF90AF909F908F905F
S11305E07F906F905F904F9008954F925F926F92BB
S11305F07F928F929F92AF92BF92CF92DF92EF92AF
S1130600FF920F931F932B013C0149015A0167018B
S1130610780161E072E08AEC93E00E94771122E0B5
S113062030E0B301A2018AEC93E00E94751365E106
S113063072E08AEC93E00E94771122E030E0B50189
S1130640A4018AEC93E00E9475136AE272E08AECDA
S113065093E00E94771122E030E0B701A6018AEC12
S113066093E00E9477131F910F91FF90EF90DF901A
S1130670CF90BF90AF909F908F907F906F905F903E
S11306804F9008952F923F924F925F926F927F9274
S11306908F929F92AF92BF92CF92DF92EF92FF928E
S11306A00F931F93CF93DF93CDB7DEB7A8970FB601
S11306B0F894DEBF0FBECDBF7C011B015CA34BA32E
S11306C0BE01635F7F4F87ED92E07DD78D859E8568
S11306D0AF85B88980936E0390936F03A0937003E2
S11306E0B093710389899A89AB89BC898093720319
S11306F090937303A0937403B09375038D899E89BB
S1130700AF89B88D8093760390937703A093780391
S1130710B093790322E833E04EE753E06AE773E0ED
S11307208DEE92E0ACD520917A0330917B03409119
S11307307C0350917D0360918603709187038091BF
S11307408803909189030E94B41A6093AA0370935A
S1130750AB038093AC039093AD0320917E0330915F
S11307607F03409180035091810360918A037091CB
S11307708B0380918C0390918D030E94B41A609333
S1130780AE037093AF038093B0039093B1032091B1
S113079082033091830340918403509185036091D7
S11307A08E0370918F0380919003909191030E9426
S11307B0B41A6093B2037093B3038093B403909319
S11307C0B50386E693E00E945D1066E673E0CE0111
S11307D001960E948F1029813A814B815C816D8141
S11307E07E818F8198850E94281B4B015C0120E04B
S11307F030E0A9010E947B1B882354F42BED3FE0D9
S113080049EC50E4C501B4010E94B51A4B015C01E6
S11308102BED3FE049EC50E4C501B4010E94EF1C0C
S1130820181654F42BED3FE049EC50E4C501B40133
S11308300E94B41A4B015C0120E030E044E353E42D
S1130840C501B4010E94FA1C6DA37EA38FA398A7CF
S11308508091AA039091AB03A091AC03B091AD0336
S1130860BC01CD01905823E333E343E052E40E94FA
S11308707F1B20E030E040E05FE30E94FA1CF701B8
S113088020813181428153810E94B51A2B013C01A0
S1130890F70160837183828393830F2EF6E7AF2E73
S11308A0F3E0BF2EF02DF501208131814281538187
S11308B002E713E0F80160817181828193810E94D3
S11308C0281B6F8F78A389A39AA32DEC3CEC4CE4EE
S11308D05FE3C301B2010E94FA1C2B013C0123E334
S11308E033E345E652E46F8D78A189A19AA10E9471
S11308F0FA1C90582CEC3CEC4CE45EE30E94FA1C8D
S11309009B01AC01C301B2010E94B51AF7016083D7
S11309107183828393838091AE039091AF03A091FE
S1130920B003B091B103BC01CD01905823E333E38C
S113093043E052E40E947F1B20E030E040E05FE3AC
S11309400E94FA1CF10120813181428153810E946D
S1130950B51A6B017C01F1016083718382839383F7
S1130960F8014080518062807380F501808091801D
S1130970A280B380A3019201C301B2010E94FA1CB8
S11309806F8F78A389A39AA3A3019201C301B20133
S11309900E94FA1C2B013C01A5019401C501B4017C
S11309A00E94FA1C9B01AC01C301B2010E94B51A5A
S11309B00E94611D9B01AC0180916E0390916F03B5
S11309C0A0917003B0917103BC01CD0190580E94B5
S11309D0281B2B013C012DEC3CEC4CE45FE3C701EC
S11309E0B6010E94FA1C6B017C0123E333E345E664
S11309F052E4C301B2010E94FA1C90582CEC3CEC66
S1130A004CE45EE30E94FA1C9B01AC01C701B601F1
S1130A100E94B51AF10160837183828393832BED65
S1130A203FE049E450E46DA17EA18FA198A50E9406
S1130A307F1BEBA1FCA16083718382839383A896BF
S1130A400FB6F894DEBF0FBECDBFDF91CF911F91DB
S1130A500F91FF90EF90DF90CF90BF90AF909F9059
S1130A608F907F906F905F904F903F902F9008955C
S1130A700F931F93CF93DF9300D01F921F92CDB794
S1130A80DEB710926D0387ED92E096D5CE01019604
S1130A900E94F50E85E0FE013196A6E6B3E00190D2
S1130AA00D928A95E1F746E656E666EA7FE386E626
S1130AB093E00E94250F0BE613E0F80191838083F5
S1130AC060E086E693E00E94E00FF8019183808362
S1130AD0009751F0BC0186E693E00E94E60FBC014A
S1130AE08AEC93E00E94A71180E090E0A0E8BFE3C5
S1130AF08093B6039093B703A093B803B093B9035C
S1130B008093BA039093BB03A093BC03B093BD033B
S1130B100F900F900F900F900F90DF91CF911F9136
S1130B200F91089526E040E855E260E070E08AEC19
S1130B3093E086D68EEC96E00E94DF1899DF44EFAE
S1130B4051E060E070E084E496E00E94D7132FEF58
S1130B503FEFA90164E172E084E496E00E94E713A8
S1130B60E4EDF2E081E082831082118280E092E081
S1130B709093D1028093D00208958F929F92AF9266
S1130B80BF92CF92DF92EF92FF920F931F9384E470
S1130B9096E00E94DE138091D402813099F038F0FF
S1130BA0823009F459C0833009F45AC05BC0809183
S1130BB0D602882321F081E08093D50253C010929D
S1130BC0D50250C0E090A603F090A7030091A803BB
S1130BD01091A9032091A2033091A3034091A4038F
S1130BE05091A50360919E0370919F038091A0038F
S1130BF09091A1030F2EF6EBCF2EF3E0DF2EF02D14
S1130C0017DC6091C8037091C903072E000C880B90
S1130C10990B0E941A1C6B017C016091C6037091B0
S1130C20C703072E000C880B990B0E941A1C4B015A
S1130C305C018091C4039091C503BC01990F880B9A
S1130C40990B0E941A1C87017601A5019401CDDC41
S1130C5082E08093D50206C083E08093D50202C06F
S1130C601092D502E4EDF2E08181808381E08093EB
S1130C706D0346EA53E062EA73E08EE993E002DD35
S1130C801F910F91FF90EF90DF90CF90BF90AF90A6
S1130C909F908F90089587ED92E0D2D386E693E0FB
S1130CA00E94F50E10926C0310926B030895FC01E0
S1130CB081E08083118283EC9BEAA6E7BBE3828315
S1130CC09383A483B58388ED9BE6A6E7BBE3868381
S1130CD09783A087B18782EF94EEA4E6BBE3828773
S1130CE09387A487B5870895CF93DF93D62FC42F16
S1130CF0FC01648975898EEC96E00E9405196D2FBC
S1130D008EEC96E00E949F186C2F8EEC96E00E9469
S1130D109F188EEC96E00E941919DF91CF910895E7
S1130D2048E06DE2E1CF0895FC01758B648BF8CF48
S1130D300895CF92DF92EF92FF920F931F93CF9378
S1130D40DF937C01C62F6A01022F132FFC016489F3
S1130D5075898EEC96E00E9405196C2F8EEC96E056
S1130D600E949F188EEC96E00E941919F70164897D
S1130D7075898EEC96E00E940519F70164897589DE
S1130D80A6018EEC96E00E94F818C02FD12F00E047
S1130D9010E007C08EEC96E00E944C1889930F5F18
S1130DA01F4F8EEC96E00E944418892B99F70C157E
S1130DB01D0521F0F701108281E081838EEC96E01D
S1130DC00E941919DF91CF911F910F91FF90EF901D
S1130DD0DF90CF900895CF92DF92EF92FF920F931E
S1130DE01F93CF93DF93EC016B017A0189019C017E
S1130DF0225F3F4F46E050E062E39BDF8F8590E047
S1130E00982F88272E85822BF601918380838989E8
S1130E1090E0982F88272889822BF701918380837B
S1130E208B8990E0982F88272A89822BF801918357
S1130E308083DF91CF911F910F91FF90EF90DF900E
S1130E40CF900895FC0180E090E0A0E8BFE38083A8
S1130E509183A283B38384839583A683B783808796
S1130E609187A287B3871586148617861686118AFA
S1130E70108A828B938BA48BB58B868B978BA08FD8
S1130E80B18F828F938FA48FB58F0895CF93DF9303
S1130E90D62FC42FFC01668D8EEC96E00E94FB18C1
S1130EA06D2F8EEC96E00E949F186C2F8EEC96E0CE
S1130EB00E949F188EEC96E00E941919DF91CF9141
S1130EC00895462F65E1E2CF0895EF92FF920F93C4
S1130ED01F93CF93DF93EC01062F142F79016E8DAE
S1130EE08EEC96E00E94FB18602F8EEC96E00E9438
S1130EF09F188EEC96E00E9419196E8D8EEC96E088
S1130F000E94FB18412F6E8D8EEC96E00E94F5181E
S1130F10C0E00AC087010C0F111D8EEC96E00E9400
S1130F204C18F8018083CF5F8EEC96E00E94441841
S1130F30892B81F78EEC96E00E941919DF91CF91ED
S1130F401F910F91FF90EF9008951F93CF93DF931C
S1130F50EC01162F9C01215E3F4F41E066E1B5DFB5
S1130F60412F440F440F440F9F8D977E492B66E118
S1130F70CE018CDFDF91CF911F9108951F93CF9302
S1130F80DF93EC01162F9C01215E3F4F41E066E1A7
S1130F909CDF4F8D487F412B66E1CE0177DFDF91E7
S1130FA0CF911F9108951F93CF93DF93EC01162FD8
S1130FB09C01215E3F4F41E067E187DF412F440FF1
S1130FC0440F9F8D9B7F492B67E1CE015FDFDF914B
S1130FD0CF911F9108951F93CF93DF93EC01162FA8
S1130FE09C01215E3F4F41E067E16FDF4F8D4E7FF3
S1130FF0412B67E1CE014ADFDF91CF911F91089524
S1131000CF92DF92EF92FF920F931F93CF93DF93D0
S1131010EC016B017A0189019C01215E3F4F46E09E
S11310206DE153DF8F8D90E0982F882728A1822BC4
S1131030F6019183808389A190E0982F88272AA1C3
S1131040822BF701918380838BA190E0982F8827CE
S11310502CA1822BF80191838083DF91CF911F9182
S11310600F91FF90EF90DF90CF9008959B012C5F3C
S11310703F4FAB014E5F5F4FC3CF08952F923F9216
S11310804F925F926F927F928F929F92AF92BF9294
S1131090CF92DF92EF92FF920F931F93CF93DF9340
S11310A0CDB7DEB72E970FB6F894DEBF0FBECDBF17
S11310B09C878B877E876D876115710509F454C001
S11310C01B01412C512C3201530142017301620175
S11310D000E010E0CA01A0E0B0E08F839887A98700
S11310E0BA876F81788589859A850E949019BE0197
S11310F06F5F7F4F8B859C85B9DF69817A81072E6D
S1131100000C880B990B0E941A1C9B01AC01C301B3
S1131110B2010E94B51A2B013C016B817C81072E20
S1131120000C880B990B0E941A1C9B01AC01C50191
S1131130B4010E94B51A4B015C016D817E81072EBA
S1131140000C880B990B0E941A1C9B01AC01C7016F
S1131150B6010E94B51A6B017C010F5F1F4F021587
S1131160130509F0BECF07C0412C512C32015301A5
S1131170420173016201AD85BE85BD0180E090E04E
S11311800E94181C6F83788789879A87C301B201EC
S113119090582F81388549855A850E947F1B0E946B
S11311A0E71BEB85FC8575876487C501B4019058FE
S11311B02F81388549855A850E947F1B0E94E71B31
S11311C0AB85BC851F967C936E931E97C701B601B1
S11311D090582F81388549855A850E947F1B0E942B
S11311E0E71BEB85FC85718B608B2E960FB6F8940C
S11311F0DEBF0FBECDBFDF91CF911F910F91FF9046
S1131200EF90DF90CF90BF90AF909F908F907F90A2
S11312106F905F904F903F902F900895CF92DF9200
S1131220EF92FF920F931F93CF93DF93EC016B0127
S11312307A018901E5DEF601208131818C859D8565
S1131240820F931F91838083F701208131818E85E2
S11312509F85820F931F91838083F80120813181C0
S113126088899989820F931F91838083DF91CF911D
S11312701F910F91FF90EF90DF90CF900895AF9260
S1131280BF92CF92DF92EF92FF920F931F93CF936F
S1131290DF9300D000D0CDB7DEB78C015B016A01CB
S11312A079019E012F5F3F4FAE014D5F5F4FBE013D
S11312B06B5F7F4FB3DF6D817E81072E000C880B3F
S11312C0990B0E941A1C20E030E046E651E40E948B
S11312D07F1BF80122893389448955890E94FA1CAD
S11312E0F80120813181428153810E94FA1CF50169
S11312F060837183828393836B817C81072E000CCE
S1131300880B990B0E941A1C20E030E046E651E459
S11313100E947F1BF80126893789408D518D0E94D8
S1131320FA1CF80124813581468157810E94FA1CF8
S1131330F601608371838283938369817A81072EA6
S1131340000C880B990B0E941A1C20E030E046E642
S113135051E40E947F1BF801228D338D448D558DFD
S11313600E94FA1CF80120853185428553850E942C
S1131370FA1CF701608371838283938326960FB6E8
S1131380F894DEBF0FBECDBFDF91CF911F910F91B7
S1131390FF90EF90DF90CF90BF90AF9008951F9390
S11313A0CF93DF93EC01162F9C01215E3F4F41E068
S11313B06EE38BDD4F8D487F412B6EE3CE0166DDFE
S11313C0DF91CF911F910895AF92CF92EF920F9337
S11313D01F93CF93DF93EC01122F6E8F642F71DD77
S11313E0612FCE01B2DD602FCE01C8DD6E2DCE019E
S11313F0D6DF6C2DCE01D7DD6A2DCE01ECDD66E49F
S113140070E080E090E00E949019DF91CF911F91ED
S11314100F91EF90CF90AF900895AF92CF92EF924B
S11314200F93AA24A394CC24C394EE24E39400E061
S113143023E040E0C9DF0F91EF90CF90AF90089583
S1131440EF92FF920F931F93CF93DF93CDB7DEB745
S1131450EB970FB6F894DEBF0FBECDBF8C0127DC2F
S1131460780186E1E80EF11CC701ECDCCE0101969F
S11314701EDC86E1FE013196D80101900D928A9519
S1131480E1F7CE014796DEDC95E2FE017796D701BF
S113149001900D929A95E1F7F801EB59FF4F80E026
S11314A090E0A0E8BFE380839183A283B383349662
S11314B01082118212821382349610821182128257
S11314C0138234961082118212821382B097108292
S11314D01182128213823496108211821282138234
S11314E034961082118212821382349680839183FF
S11314F0A283B38334968DEC9CECACE4BEE380838E
S11315009183A283B3837496108211821282138210
S113151034961082118212821382349610821182C0
S113152012821382349610821182128213823496AC
S11315301082118212821382EB960FB6F894DEBFEA
S11315400FBECDBFDF91CF911F910F91FF90EF9010
S11315500895DF92EF92FF920F931F93CF93DF933F
S1131560EC017B018A01D22E65E070E080E090E01E
S11315700E94901958985998DD2019F08CE08093B6
S1131580B800B701CE01D0DB6696B801CE0145DFC5
S113159068EE73E080E090E00E94901945E050E02E
S11315A060E870E0CE016ADDDF91CF911F910F9169
S11315B0FF90EF90DF90089520E048E650E063E567
S11315C070E0C7CF08950F931F93CF93DF9300D09C
S11315D000D0CDB7DEB78B019E012B5F3F4FAE012C
S11315E04D5F5F4FBE016F5F7F4FF5DB69817A818D
S11315F0072E000C880B990B0E941A1CF8016083BB
S11316007183828393836B817C81072E000C880B0A
S1131610990B0E941A1CF80164837583868397834F
S11316206D817E81072E000C880B990B0E941A1C79
S1131630F801608771878287938726960FB6F8949E
S1131640DEBF0FBECDBFDF91CF911F910F910895E3
S1131650FC01918D228D892F90E0805C9F4F821B2D
S113166091098F7399270895FC01918D828D9817A4
S113167031F0828DE80FF11D858D90E008958FEF94
S11316809FEF0895FC01918D828D981761F0828DF2
S1131690DF01A80FB11D5D968C91928D9F5F9F73A2
S11316A0928F90E008958FEF9FEF08958EEE9CE067
S11316B0892B41F080E090E0892B21F08FD18111BA
S11316C00E94000089E89DE0892B41F080E090E0D1
S11316D0892B21F01ED281110E94000084E29EE039
S11316E0892B41F080E090E0892B21F0ADD281116B
S11316F00E9400008FEB9EE0892B41F080E090E097
S1131700892B21F03CD381110E9400000895FC0133
S1131710848DDF01A80FB11DA35ABF4F8C91248D76
S113172030E02F5F3F4F2F733078332334F4215050
S11317303109206C3F6F2F5F3F4F248FA689B789F3
S11317408C93A089B1898C9180648C93938D848DC2
S1131750981306C00288F389E02D80818F7D8083F1
S11317600895CF93DF93EC01888D81110EC017C0CB
S11317700FB607FC0CC0908195FF09C0A889B989F0
S11317808C9185FF04C0CE01C2DFEA89FB89908178
S113179095FDEECFA889B9898C9186FFE9CFDF91B9
S11317A0CF9108950F931F93CF93DF93FC01938DF3
S11317B0848D981323C0A089B1898C9185FD30C094
S11317C01DC00FB607FC07C0E889F989808185FF31
S11317D002C0CE019CDF9C8D091799F38B8DFE010D
S11317E0E80FF11DE35AFF4F10830B8FEA89FB8941
S11317F080818062808381E0888F1BC0238D30E0EC
S11318002F5F3F4F2F733078332334F42150310945
S1131810206C3F6F2F5F3F4F162FEF01022FDBCF5E
S1131820A689B7896C930088F189E02D8081806452
S1131830808381E090E0DF91CF911F910F91089513
S1131840BF92CF92DF92EF92FF920F931F93CF93A9
S1131850DF93EC016A017B01B22EE889F98982E009
S113186080834115514E61057105B1F060E079E066
S11318708DE390E0A70196010E94CA1D89019A0197
S113188001501109210931093695279517950795B6
S1131890011580E11807A8F0E889F989108260E849
S11318A074E88EE190E0A70196010E94CA1DDA0156
S11318B0C9010197A109B109B695A795979587958F
S11318C08C01EC85FD851083EE85FF850083188EE1
S11318D0EC89FD89B082EA89FB89808180618083FB
S11318E0EA89FB89808188608083EA89FB89808119
S11318F080688083EA89FB8980818F7D8083DF9182
S1131900CF911F910F91FF90EF90DF90CF90BF90F8
S113191008951F920F920FB60F9211240BB60F92D7
S11319202F938F939F93AF93BF93EF93FF93E09184
S1131930DA03F091DB03808182FD14C0EAECF3E06A
S1131940A689B7892C91818D8F5F8F73928D8917AA
S113195071F0DF01E18DF0E0E653FC4F258F5996DD
S11319608C9305C0E091E003F091E1038081FF9145
S1131970EF91BF91AF919F918F912F910F900BBEDB
S11319800F900FBE0F901F9018951F920F920FB6D5
S11319900F9211240BB60F922F933F934F935F93A3
S11319A06F937F938F939F93AF93BF93EF93FF9323
S11319B08AEC93E0ACDEFF91EF91BF91AF919F91E0
S11319C08F917F916F915F914F913F912F910F90E4
S11319D00BBE0F900FBE0F901F9018958AEC93E0EA
S11319E037DE21E0892B09F420E0822F0895EAEC08
S11319F0F3E01382128288EE93E0A0E0B0E08483E7
S1131A009583A683B78382E492E09183808385ECF7
S1131A1090E09587848784EC90E09787868780ECB4
S1131A2090E0918B808B81EC90E0938B828B82ECA5
S1131A3090E0958B848B86EC90E0978B868B118E4F
S1131A40128E138E148E08951F920F920FB60F925A
S1131A5011240BB60F922F938F939F93AF93BF9341
S1131A60EF93FF93E0917704F0917804808182FDF5
S1131A7014C0E7E6F4E0A689B7892C91818D8F5FC5
S1131A808F73928D891771F0DF01E18DF0E0E959D0
S1131A90FB4F258F59968C9305C0E0917D04F091FE
S1131AA07E048081FF91EF91BF91AF919F918F91BF
S1131AB02F910F900BBE0F900FBE0F901F90189593
S1131AC01F920F920FB60F9211240BB60F922F9301
S1131AD03F934F935F936F937F938F939F93AF93B2
S1131AE0BF93EF93FF9387E694E011DEFF91EF91AC
S1131AF0BF91AF919F918F917F916F915F914F9122
S1131B003F912F910F900BBE0F900FBE0F901F901F
S1131B10189587E694E09CDD21E0892B09F420E008
S1131B20822F0895E7E6F4E01382128288EE93E0B0
S1131B30A0E0B0E084839583A683B78382E492E037
S1131B40918380838DEC90E0958784878CEC90E082
S1131B509787868788EC90E0918B808B89EC90E066
S1131B60938B828B8AEC90E0958B848B8EEC90E047
S1131B70978B868B118E128E138E148E08951F925E
S1131B800F920FB60F9211240BB60F922F938F93CF
S1131B909F93AF93BF93EF93FF93E0911405F0915C
S1131BA01505808182FD14C0E4E0F5E0A689B789BB
S1131BB02C91818D8F5F8F73928D891771F0DF0166
S1131BC0E18DF0E0EC5FFA4F258F59968C9305C0B8
S1131BD0E0911A05F0911B058081FF91EF91BF916F
S1131BE0AF919F918F912F910F900BBE0F900FBECD
S1131BF00F901F9018951F920F920FB60F921124F9
S1131C000BB60F922F933F934F935F936F937F93F2
S1131C108F939F93AF93BF93EF93FF9384E095E0EB
S1131C2076DDFF91EF91BF91AF919F918F917F915D
S1131C306F915F914F913F912F910F900BBE0F9039
S1131C400FBE0F901F90189584E095E001DD21E010
S1131C50892B09F420E0822F0895E4E0F5E0138253
S1131C60128288EE93E0A0E0B0E084839583A6839B
S1131C70B78382E492E09183808385ED90E0958739
S1131C80848784ED90E09787868780ED90E0918B40
S1131C90808B81ED90E0938B828B82ED90E0958B2D
S1131CA0848B86ED90E0978B868B118E128E138E2B
S1131CB0148E08951F920F920FB60F9211240BB633
S1131CC00F922F938F939F93AF93BF93EF93FF93B1
S1131CD0E091B105F091B205808182FD14C0E1EA82
S1131CE0F5E0A689B7892C91818D8F5F8F73928DD2
S1131CF0891771F0DF01E18DF0E0EF55FA4F258F80
S1131D0059968C9305C0E091B705F091B805808190
S1131D10FF91EF91BF91AF919F918F912F910F9070
S1131D200BBE0F900FBE0F901F9018951F920F922D
S1131D300FB60F9211240BB60F922F933F934F932C
S1131D405F936F937F938F939F93AF93BF93EF931F
S1131D50FF9381EA95E0DBDCFF91EF91BF91AF91B6
S1131D609F918F917F916F915F914F913F912F91AF
S1131D700F900BBE0F900FBE0F901F90189581EA25
S1131D8095E066DC21E0892B09F420E0822F089598
S1131D90E1EAF5E01382128288EE93E0A0E0B0E07D
S1131DA084839583A683B78382E492E091838083BE
S1131DB085E391E09587848784E391E0978786871C
S1131DC080E391E0918B808B81E391E0938B828B14
S1131DD082E391E0958B848B86E391E0978B868BED
S1131DE0118E128E138E148E089540E050E060E838
S1131DF07FE3FC01418352836383748308950F93CB
S1131E001F93CF93DF93062F142F6EE170E08EECB7
S1131E1096E00E940519CEECD6E0E881F9810190A4
S1131E20F081E02D602FCE011995E881F9810190B0
S1131E30F081E02D612FCE011995CE010E94191970
S1131E40DF91CF911F910F910895CF92DF92EF927E
S1131E50FF92CF93DF93EC016A017B012EEA37E412
S1131E6041E65FE3C701B6010E947B1B81110AC0F2
S1131E7088E491EEAAE3BFE389839A83AB83BC83AE
S1131E8040E08FC026E636E646EA5FE3C701B601C6
S1131E900E947B1B81110AC08FE195E8ABE6BFE38A
S1131EA089839A83AB83BC8341E07BC023E333E320
S1131EB043EF5FE3C701B6010E947B1B81110AC097
S1131EC086EF98E2ACE9BFE389839A83AB83BC8352
S1131ED042E067C020E030E040E250E4C701B601D0
S1131EE00E947B1B81110AC08CE59FE8A2ECBFE332
S1131EF089839A83AB83BC8343E053C020E030E002
S1131F0040E850E4C701B6010E947B1B81110AC05E
S1131F108EEA97E4A1E1B0E489839A83AB83BC831E
S1131F2044E03FC026E636E646E950E4C701B60180
S1131F300E947B1B81110AC08AE097EDA3E2B0E402
S1131F4089839A83AB83BC8345E02BC023E333E3CB
S1131F5043EB50E4C701B6010E947B1B81110AC008
S1131F6085E89BEEA1E4B0E489839A83AB83BC83C8
S1131F7046E017C02AE939E941E051E4C701B60156
S1131F800E947B1B81110AC083E393E3ABE8B0E4B6
S1131F9089839A83AB83BC8347E003C081E090E0EC
S1131FA008C04295440F407E50E061E070E0CE01ED
S1131FB026DFDF91CF91FF90EF90DF90CF900895CF
S1131FC0462F50E062E070E01ACF08958EE492E06C
S1131FD008957F928F929F92AF92BF92CF92DF9299
S1131FE0EF92FF920F931F93CF93DF93CDB7DEB79A
S1131FF0162F7A018DB69EB66EE170E08EEC96E0F7
S11320000E940519E091CE06F091CF060190F0816F
S1132010E02D612F8EEC96E019958EEC96E00E94EF
S113202019196EE170E08EEC96E00E940519A70183
S11320306EE170E08EEC96E00E94F8188DB79EB7C2
S11320408E199F090FB6F8949EBF0FBE8DBF0196DF
S11320506C015C018EEC96E00E944418E816F906C7
S1132060A1F41E141F048CF400E010E0712C8EEC1B
S113207096E00E944C18F501E00FF11F80837394E1
S1132080072D10E00E151F0594F38EEC96E00E94C8
S11320901919C6010FB6F8949EBE0FBE8DBEDF910E
S11320A0CF911F910F91FF90EF90DF90CF90BF9051
S11320B0AF909F908F907F900895CF93DF9300D03F
S11320C000D0CDB7DEB746E050E063E070E081DFDA
S11320D0FC01628170E0762F66278381682B44813E
S11320E050E0542F44278581482B208130E0322F43
S11320F022278181282B3A8329835C834B837E8327
S11321006D833A815C817E8180E090E026960FB6F3
S1132110F894DEBF0FBECDBFDF91CF910895CF926B
S1132120DF92EF92FF920F931F93CF93DF9300D030
S113213000D0CDB7DEB78C017B01CB01BEDF298394
S11321403A834B835C836D837E83F701C180D280A5
S1132150E380F48069817A81072E000C880B990B47
S11321600E941A1CA70196010E94FA1CF8016083C0
S11321707183828393836D817E81072E000C880B8B
S1132180990B0E941A1C9B01AC01C701B6010E9465
S1132190FA1CF80160877187828793876B817C8141
S11321A0072E000C880B990B0E941A1C9B01AC0192
S11321B0C701B6010E94FA1CF80164837583868303
S11321C09783C80126960FB6F894DEBF0FBECDBF25
S11321D0DF91CF911F910F91FF90EF90DF90CF90FF
S11321E0089508958F929F92AF92BF92CF92DF92FB
S11321F0EF92FF920F931F93CF93DF935C017B01C8
S11322004C0182E0880E911C6501E5E0CE0ED11CE4
S113221000E010E0F40161914F014AE050E0C70191
S11322205FD1EC016EE2C70178D08C0F9D1F080FBF
S1132230191F8C149D0471F74AE050E0F501658183
S1132240C7014ED1800F911FDF91CF911F910F9144
S1132250FF90EF90DF90CF90BF90AF909F908F90C2
S11322600895EEE3F6E08FEA92E091838083128290
S1132270138214821582089508950E94BA19FCDF0E
S11322800E949205C6E5DBE00E94BD052097E1F3BC
S11322900DDAFACFCF92DF92EF92FF920F931F9352
S11322A0CF93DF9341155105B1F08C01E62EF72E43
S11322B0EA01C12CD12CD7016D917D01D801ED919A
S11322C0FC910190F081E02DC8011995C80ED91E2A
S11322D0219789F702C0C12CD12CC601DF91CF917F
S11322E01F910F91FF90EF90DF90CF9008956115AB
S11322F0710581F0FB0101900020E9F73197AF01EE
S1132300461B570BDC01ED91FC910280F381E02D1B
S11323101995089580E090E00895DC01ED91FC9119
S11323200190F081E02D199508950F931F93CF9399
S1132330DF93EC016DE0F1DF8C016AE0CE01EDDFAB
S1132340800F911FDF91CF911F910F9108950F93EB
S11323501F93CF93DF93EC01CADF8C01CE01E5DF3D
S1132360800F911FDF91CF911F910F9108954F928C
S11323705F926F927F929F92AF92BF92CF92DF92C1
S1132380EF92FF920F931F93CF93DF93CDB7DEB7F6
S1132390A1970FB6F894DEBF0FBECDBF5C016A01F2
S11323A07B01922E19A281E0821720F00F2EFAE011
S11323B09F2EF02D8E010F5D1F4F492C512C612C47
S11323C0712CC701B601A30192010E94CA1D8C2D74
S11323D0929E80191124015011098A3010F4805DF5
S11323E001C0895CD8018C93C22ED32EE42EF52E25
S11323F0C114D104E104F10421F70115110591F090
S1132400F80101900020E9F73197AF01401B510B0F
S1132410D501ED91FC910280F381E02DB801C50155
S1132420199502C080E090E0A1960FB6F894DEBF43
S11324300FBECDBFDF91CF911F910F91FF90EF9011
S1132440DF90CF90BF90AF909F907F906F905F9000
S11324504F900895CF92DF92EF92FF920F931F93C4
S1132460CF93DF93EC016A017B012115310541F41F
S1132470E881F9810190F081E02D642F199519C04C
S11324802A303105A9F4772384F46DE246DF8C0108
S113249044275527BA014C195D096E097F092AE0C2
S11324A0CE0165DF800F911F04C02AE060DF01C008
S11324B05EDFDF91CF911F910F91FF90EF90DF903E
S11324C0CF9008952115310549F4DC01ED91FC917B
S11324D00190F081E02D642F1995089548CF089557
S11324E09A01462F50E060E070E0ECCF08954F92DF
S11324F05F927F928F929F92AF92BF92CF92DF9220
S1132500EF92FF920F931F93CF93DF9300D01F920C
S1132510CDB7DEB78C014A015B01722E9A01AB0183
S1132520C501B4010E94A21D882329F061EB72E069
S1132530C801DDDEC6C075016401E894F7F82FEF29
S11325403FEF4FE75FE7C701B6010E94A21D81116B
S11325500FC02FEF3FEF4FE75FE7C701B6010E94BF
S11325607B1B18162CF465EB72E0C801C0DEA9C011
S11325702FEF3FEF4FE75FE4C501B4010E94EF1C6A
S113258018162CF469EB72E0C801B1DE9AC02FEF83
S11325903FEF4FE75FECC501B4010E947B1B88232A
S11325A02CF469EB72E0C801A2DE8BC020E030E0BD
S11325B0A901C501B4010E947B1B88234CF46DE280
S11325C0C801ABDE7C01B7FAB094B7F8B09402C08E
S11325D0E12CF12C772009F461C0D12C60E070E08B
S11325E080E09FE320E030E040E251E40E947F1B62
S11325F0D394D710F7CF29C020E030E040E251E473
S1132600C501B4010E94FA1C4B015C010E94E71B46
S11326106B01770FEE08FF082AE030E0B701A6014E
S1132620C80118DF480E591EC701B6010E941A1CC2
S11326309B01AC01C501B40197D74B015C017A94AD
S11326407110DACF842D952D3CC09B01AC01C501DE
S1132650B4018BD74B015C010E94EC1B69837A8324
S11326608B839C830E94181C9B01AC01C501B4019F
S11326707BD74B015C012AE030E049815A816B81B0
S11326807C81C8011FDF6C016DEB72E0C8012FDE95
S11326908C0D9D1D2C014E0C5F1CAECF20E030E054
S11326A040E05FE3C501B40160D70E94EC1BAB01BD
S11326B0BC012AE030E0C80105DF2C014E0C5F1C90
S11326C0C1CF0F900F900F900F90DF91CF911F917A
S11326D00F91FF90EF90DF90CF90BF90AF909F90BD
S11326E08F907F905F904F90089501CF08950F933E
S11326F01F93CF93DF93EC01FADE8C01CE0115DE3C
S1132700800F911FDF91CF911F910F9108951F9218
S11327100F920FB60F9211240BB60F922F933F9383
S11327204F935F936F937F938F939F93AF93BF93D5
S1132730EF93FF93E0914706F09148061995FF91B6
S1132740EF91BF91AF919F918F917F916F915F9125
S11327504F913F912F910F900BBE0F900FBE0F9092
S11327601F901895CF93DF93EC0181E08A839A013F
S1132770AB0160E074E284EF90E00E94BB1D20E8AE
S113278034E84EE150E00E94EC1D398328833093F5
S1132790970020939600E1E9F0E08081887F8083B0
S11327A090818A81892B8083DF91CF910895109243
S11327B0900020E120939100D5CF0895E1E9F0E065
S11327C02081DC0112968C91822B808308950F93D3
S11327D01F93CF93DF93EC018B011216130614069B
S11327E015061CF4BA01A901BDDF1C830B8381E02B
S11327F0809371007894CE01E1DFDF91CF911F9136
S11328000F9108958230A9F028F4882349F081308B
S113281051F00895843009F1E8F0853009F1089504
S113282010926E000895EFE6F0E080818D7F808342
S11328300895E0E7F0E080818D7F808381E08093DC
S1132840B000E1EBF0E08081887F846080831092A7
S1132850B3000895109271000895109272000895C3
S1132860109273000895CF93C82F809100028C13A7
S113287008C0E8ECF2E0E4918E2F9FEF9093000201
S113288001C08FEFBFDF60E08C2F3ED6CF9108955B
S11328901F920F920FB60F9211240BB60F922F9323
S11328A03F934F935F936F937F938F939F93AF93D4
S11328B0BF93EF93FF9380914C0690914D06A091A6
S11328C04E06B0914F06892B8A2B8B2B51F18091A8
S11328D04906E0914A06F0914B069081892780834E
S11328E080914C0690914D06A0914E06B0914F06F2
S11328F0181619061A061B06BCF480914C06909112
S11329004D06A0914E06B0914F060197A109B10959
S113291080934C0690934D06A0934E06B0934F06B9
S113292003C0809100029FDFFF91EF91BF91AF91AF
S11329309F918F917F916F915F914F913F912F91D3
S11329400F900BBE0F900FBE0F901F901895109212
S1132950BD0681E08093BB061092BA0661E084E173
S1132960D3D561E085E1D0D5E9EBF0E080818E7FBD
S1132970808380818D7F808388E48093B80085E4A0
S11329808093BC000895413208F046C09091BD0682
S11329909111FCCF31E03093BD062093BB062FEF9D
S11329A02093500610929506240F2093940630939A
S11329B0BC062091BC06880F822B8093BC068091B4
S11329C0BA06813051F41092BA068091BC06809305
S11329D0BB0085EC8093BC0003C085EE8093BC00F3
S11329E08091BD068130E1F380919506841710F43F
S11329F040919506442389F0A6E9B6E0FB018FEFE8
S1132A00840F90E00196680F791F8D918193E617EA
S1132A10F707D9F7942F01C090E0892F08950F93F9
S1132A20413208F051C03091BD063111FCCF92E023
S1132A309093BD060093BB069FEF909350061092AF
S1132A40950640939406442371F0FB01A6E9B6E091
S1132A50415050E04F5F5F4F640F751F91919D93FC
S1132A60E617F707D9F71092BC069091BC06880FB9
S1132A70892B8093BC068091BA06813051F4109260
S1132A80BA068091BC068093BB0085EC8093BC00A1
S1132A9003C085EE8093BC00222341F08091BD06E3
S1132AA0823021F48091BD068230E1F3809150069A
S1132AB08F3F79F080915006803241F0809150062A
S1132AC0803331F034E005C031E003C032E001C0AE
S1132AD033E0832F0F9108956132C8F42091BD062D
S1132AE02430B9F4609372066623A9F0FC01A4E7CC
S1132AF0B6E06150262F30E02F5F3F4F280F391F7B
S1132B0091919D93E217F307D9F780E0089581E04E
S1132B10089582E0089580E0089585ED8093BC00D7
S1132B20ECEBF0E0808184FDFDCF1092BD060895AA
S1132B3085EC8093BC001092BD0608951F920F92FD
S1132B400FB60F9211240BB60F922F933F934F930E
S1132B505F936F937F938F939F93AF93BF93EF9301
S1132B60FF938091B900887F90E0893C910508F03B
S1132B70F0C0FC018827EE58FF4F8F4F0C94081EBD
S1132B808091BC068093BB0085EC8093BC00E1C0BF
S1132B909091950680919406981780F4E09195069B
S1132BA081E08E0F80939506F0E0EA56F94F80811C
S1132BB08093BB0085EC8093BC00CBC08091BB06A6
S1132BC0882311F0AADFC5C081E08093BA0684EAA5
S1132BD08093BC001092BD06BCC080E28093500676
S1132BE09CDFB7C080E38093500697DFB2C088E3D0
S1132BF0809350069DDFADC0E091950681E08E0F75
S1132C00809395068091BB00F0E0EA56F94F8083EB
S1132C109091950680919406981720F485EC809302
S1132C20BC0097C085E88093BC0093C0E0919506F2
S1132C3081E08E0F809395068091BB00F0E0EA5608
S1132C40F94F80838091BB06882311F066DF81C031
S1132C5081E08093BA0684EA8093BC001092BD069A
S1132C6078C05BDF76C083E08093BD061092510686
S1132C7085EC8093BC006DC080915106803280F455
S1132C80E091510681E08E0F809351068091BB0044
S1132C90F0E0EE5AF94F808385EC8093BC0059C074
S1132CA085E88093BC0055C080915106803230F491
S1132CB0E0915106F0E0EE5AF94F10822EDF609158
S1132CC0510670E0E091B606F091B70682E596E011
S1132CD01995109251062CDF3CC085E88093BC0006
S1132CE038C084E08093BD06109273061092720679
S1132CF0E091B806F091B906199580917206811198
S1132D0005C081E08093720610927406E091730608
S1132D1081E08E0F80937306F0E0EC58F94F8081C8
S1132D208093BB009091730680917206981720F4EB
S1132D3085EC8093BC000DC085E88093BC0009C07D
S1132D4085EC8093BC001092BD0603C0109250061F
S1132D50E4DEFF91EF91BF91AF919F918F917F91AD
S1132D606F915F914F913F912F910F900BBE0F90F8
S1132D700FBE0F901F9018951F920F920FB60F92CF
S1132D8011240BB60F922F933F934F935F936F933E
S1132D907F938F939F93AF93BF93EF93FF93809110
S1132DA0C2069091C306892B29F0E091C206F091E6
S1132DB0C3061995FF91EF91BF91AF919F918F91A8
S1132DC07F916F915F914F913F912F910F900BBE27
S1132DD00F900FBE0F901F9018951F920F920FB671
S1132DE00F9211240BB60F922F933F934F935F933F
S1132DF06F937F938F939F93AF93BF93EF93FF93BF
S1132E008091C4069091C506892B29F0E091C406EF
S1132E10F091C5061995FF91EF91BF91AF919F91E4
S1132E208F917F916F915F914F913F912F910F906F
S1132E300BBE0F900FBE0F901F9018951F920F920C
S1132E400FB60F9211240BB60F922F933F934F930B
S1132E505F936F937F938F939F93AF93BF93EF93FE
S1132E60FF938091C6069091C706892B29F0E091C3
S1132E70C606F091C7061995FF91EF91BF91AF91E6
S1132E809F918F917F916F915F914F913F912F917E
S1132E900F900BBE0F900FBE0F901F9018951F92AE
S1132EA00F920FB60F9211240BB60F922F933F93EC
S1132EB04F935F936F937F938F939F93AF93BF933E
S1132EC0EF93FF938091C8069091C906892B29F04E
S1132ED0E091C806F091C9061995FF91EF91BF9151
S1132EE0AF919F918F917F916F915F914F913F919E
S1132EF02F910F900BBE0F900FBE0F901F9018953F
S1132F001F920F920FB60F9211240BB60F922F93AC
S1132F103F934F935F936F937F938F939F93AF935D
S1132F20BF93EF93FF938091BE069091BF06892BC8
S1132F3029F0E091BE06F091BF061995FF91EF913B
S1132F40BF91AF919F918F917F916F915F914F91BD
S1132F503F912F910F900BBE0F900FBE0F901F90BB
S1132F6018951F920F920FB60F9211240BB60F9261
S1132F702F933F934F935F936F937F938F939F937D
S1132F80AF93BF93EF93FF938091C0069091C106D6
S1132F90892B29F0E091C006F091C1061995FF91A3
S1132FA0EF91BF91AF919F918F917F916F915F91BD
S1132FB04F913F912F910F900BBE0F900FBE0F902A
S1132FC01F9018951F920F920FB60F9211240BB6F3
S1132FD00F922F933F934F935F936F937F938F93AE
S1132FE09F93AF93BF93EF93FF938091CA06909101
S1132FF0CB06892B29F0E091CA06F091CB061995EE
S1133000FF91EF91BF91AF919F918F917F916F91BC
S11330105F914F913F912F910F900BBE0F900FBE78
S11330200F901F9018951F920F920FB60F921124B4
S11330300BB60F922F933F934F935F936F937F93AE
S11330408F939F93AF93BF93EF93FF938091CC069D
S11330509091CD06892B29F0E091CC06F091CD0614
S11330601995FF91EF91BF91AF919F918F917F91AE
S11330706F915F914F913F912F910F900BBE0F90E5
S11330800FBE0F901F9018958091FE0690E020913E
S1133090FF06821B910908959091FF068091FE0618
S11330A0981750F4E92FF0E0E050F94F208130E018
S11330B09F5F9093FF0602C02FEF3FEFC901089571
S11330C0E091FF068091FE06E81730F4F0E0E0504E
S11330D0F94F808190E008958FEF9FEF0895089550
S11330E0CF92DF92EF92FF920F931F93CF93DF93D0
S11330F08C01CB016A012091DA062223A1F041154B
S1133100510599F0EB017B01E40EF51E6991D8019C
S1133110ED91FC910190F081E02DC8011995CE1537
S1133120DF05A1F702C0642FD7DCC601DF91CF9180
S11331301F910F91FF90EF90DF90CF900895CF9360
S1133140DF931F92CDB7DEB7FC0169839091DA0655
S11331509923D9F09091DB06903238F081E090E029
S11331609383828380E090E016C08091DC06E82F90
S1133170F0E0E352F94F998190838F5F8093DC06EE
S11331808093DB0681E090E006C061E0CE01019609
S1133190A3DC81E090E00F90DF91CF910895FC01D2
S11331A01382128288EE93E0A0E0B0E084839583DA
S11331B0A683B78383EC92E0918380830895109271
S11331C0FF061092FE061092DC061092DB06BFCBBF
S11331D00895862F413208F040E260E077E0D3DBC7
S11331E01092FF068093FE06089521E0F2CF089521
S11331F021E0EFCF089581E08093DA066093FD0625
S11332001092DC061092DB060895F5CF08950F9313
S1133210062F21E04091DB066DED76E08091FD06FE
S1133220FEDB1092DC061092DB061092DA060F9198
S1133230089561E0ECCF08958EEC96E0B0CF089548
S11332401F920F920FB60F9211242F933F938F93D7
S11332509F93AF93BF938091210790912207A091F0
S11332602307B09124073091200723E0230F2D3743
S113327020F40196A11DB11D05C026E8230F029676
S1133280A11DB11D2093200780932107909322074D
S1133290A0932307B09324078091250790912607D4
S11332A0A0912707B09128070196A11DB11D809315
S11332B0250790932607A0932707B0932807BF916B
S11332C0AF919F918F913F912F910F900FBE0F90CF
S11332D01F9018953FB7F894809125079091260781
S11332E0A0912707B091280726B5A89B05C02F3FBA
S11332F019F00196A11DB11D3FBFBA2FA92F982F18
S11333008827820F911DA11DB11DBC01CD01660F3F
S1133310771F881F991F660F771F881F991F0895AD
S1133320CF92DF92EF92FF92CF93DF936B017C01F8
S1133330D1DFEB01C114D104E104F104A1F00E9436
S1133340F110C8DF6C1B7D0B683E734038F081E0E0
S1133350C81AD108E108F108C851DC4FC114D104DE
S1133360E104F10461F7DF91CF91FF90EF90DF90DA
S1133370CF900895789484B5826084BD84B58160CB
S113338084BD85B5826085BD85B5816085BDEEE669
S1133390F0E0808181608083E1E8F0E01082808148
S11333A082608083808181608083E0E8F0E08081B6
S11333B081608083E1EBF0E0808184608083E0EBD6
S11333C0F0E0808181608083E1E9F0E080818260C7
S11333D08083808181608083E0E9F0E08081816086
S11333E08083E1EAF0E08081826080838081816073
S11333F08083E0EAF0E0808181608083E1E2F1E0B3
S1133400808182608083808181608083E0E2F1E05A
S1133410808181608083EAE7F0E08081846080833A
S113342080818260808380818160808380818068E4
S113343080831092C100089590E0FC013197E2313D
S1133440F10508F060C08827E55CFE4F8F4FE0C3AC
S1133450E0E8F0E080818F7780830895E0E8F0E091
S113346080818F7D80830895E0E8F0E08081877F0C
S11334708083089584B58F7784BD089584B58F7D46
S113348084BD0895E0EBF0E080818F778083089518
S1133490E0EBF0E080818F7D80830895E0E9F0E047
S11334A080818F7780830895E0E9F0E080818F7DCB
S11334B080830895E0E9F0E08081877F8083089528
S11334C0E0EAF0E080818F7780830895E0EAF0E01D
S11334D080818F7D80830895E0EAF0E08081877F9A
S11334E080830895E0E2F1E080818F7780830895FE
S11334F0E0E2F1E080818F7D80830895E0E2F1E0F5
S11335008081877F808308951F93CF93DF93282F33
S113351030E0F901E753FD4F8491F901E15FFC4F7D
S11335201491F901EB5AFC4FC491CC23C9F0D62F66
S1133530811182DFEC2FF0E0EE0FFF1FE556FC4F08
S1133540A591B4918FB7F894D11106C09C91E12F45
S1133550E095E923EC9303C0EC91E12BEC938FBF4E
S1133560DF91CF911F9108955058BB27AA270ED001
S1133570FCC1EDD130F0F2D120F031F49F3F11F4D1
S11335801EF4BDC10EF4E095E7FBB3C1E92FFED1F3
S113359080F3BA17620773078407950718F071F46C
S11335A09EF516C20EF4E0950B2EBA2FA02D0B013A
S11335B0B90190010C01CA01A0011124FF27591B74
S11335C099F0593F50F4503E68F11A16F040A22F7A
S11335D0232F342F4427585FF3CF469537952795EB
S11335E0A795F0405395C9F77EF41F16BA0B620BEA
S11335F0730B840BBAF09150A1F0FF0FBB1F661F31
S1133600771F881FC2F70EC0BA0F621F731F841F73
S113361048F4879577956795B795F7959E3F08F099
S1133620B3CF9395880F08F09927EE0F9795879558
S113363008958DD158F080E891E009F49EEF8ED181
S113364028F040E851E059F45EEF09C058C1C0C108
S1133650E92FE0789BD168F3092E052AC1F32617D8
S113366037074807590738F00E2E07F8E02569F0A8
S1133670E025E0640AC0EF6307F8009407FADB0171
S1133680B9019D01DC01CA01AD01EF9347D06DD1B1
S11336900AD05F91552331F02BED3FE049E450FD12
S11336A049EC63CF0895DF93DD27B92FBF7740E856
S11336B05FE31616170648075B0710F4D92F93D15A
S11336C09F938F937F936F933AD2EAE9F2E01AD1F2
S11336D04CD12F913F914F915F9198D1DD2349F0C7
S11336E09058A2EA2AED3FE049EC5FE3D0785D27E9
S11336F04DDFDF913AC1D9D008F481E008950CD0B0
S113370034C12CD140F023D130F021F45F3F19F0C3
S1133710F0C051115EC1F3C039D198F39923C9F3B4
S11337205523B1F3951B550BBB27AA2762177307C3
S1133730840738F09F5F5F4F220F331F441FAA1F77
S1133740A9F333D00E2E3AF0E0E830D09150504037
S1133750E695001CCAF729D0FE2F27D0660F771FE5
S1133760881FBB1F261737074807AB07B0E809F0C7
S1133770BB0B802DBF01FF2793585F4F2AF09E3F5C
S1133780510568F0B6C025C15F3FECF3983EDCF309
S1133790869577956795B795F7959F5FC9F7880FD5
S11337A0911D9695879597F90895E1E0660F771F27
S11337B0881FBB1F621773078407BA0720F0621BB8
S11337C0730B840BBA0BEE1F88F7E095089504D0B1
S11337D06894B111FEC00895E1D088F09F5790F02D
S11337E0B92F9927B751A0F0D1F0660F771F881F22
S11337F0991F1AF0BA95C9F712C0B13081F0E8D018
S1133800B1E00895E5C0672F782F8827B85F39F0B5
S1133810B93FCCF3869577956795B395D9F73EF480
S113382090958095709561957F4F8F4F9F4F089528
S1133830E89409C097FB3EF4909580957095619546
S11338407F4F8F4F9F4F9923A9F0F92F96E9BB27FC
S11338509395F695879577956795B795F111F8CF78
S1133860FAF4BB0F11F460FF1BC06F5F7F4F8F4FE3
S11338709F4F16C0882311F096E911C0772321F0D9
S11338809EE8872F762F05C0662371F096E8862F71
S113389070E060E02AF09A95660F771F881FDAF7C8
S11338A0880F9695879597F90895990F0008550FF5
S11338B0AA0BE0E8FEEF16161706E807F907C0F0B2
S11338C012161306E407F50798F0621B730B840BBA
S11338D0950B39F40A2661F0232B242B252B21F494
S11338E008950A2609F4A140A6958FEF811D811D34
S11338F0089597F99F6780E870E060E008959FEF6E
S113390080EC0895DF93CF931F930F93FF92EF9270
S1133910DF927B018C01689405C0DA2EEF0176D02A
S1133920FE01E894A5912591359145915591AEF309
S1133930EF012CDEFE019701A801DA9479F7DF90FC
S1133940EF90FF900F911F91CF91DF910895002484
S11339500A941616170618060906089500240A94F0
S113396012161306140605060895092E0394000C76
S113397011F4882352F0BB0F40F4BF2B11F460FF05
S113398004C06F5F7F4F8F4F9F4F089557FD90582E
S1133990440F551F59F05F3F71F04795880F97FB0F
S11339A0991F61F09F3F79F08795089512161306C9
S11339B01406551FF2CF4695F1DF08C016161706F8
S11339C01806991FF1CF869571056105089408952D
S11339D0E894BB2766277727CB0197F9089565DF1D
S11339E008F48FEF08959B01AC0160E070E080E87B
S11339F09FE385CE0BD0B9CFAADF28F0AFDF18F054
S1133A00952309F076CF7BCF1124E3CFBFDFA0F35A
S1133A10959FD1F3950F50E0551F629FF001729F5F
S1133A20BB27F00DB11D639FAA27F00DB11DAA1F7E
S1133A30649F6627B00DA11D661F829F2227B00DCB
S1133A40A11D621F739FB00DA11D621F839FA00D56
S1133A50611D221F749F3327A00D611D231F849FA6
S1133A60600D211D822F762F6A2F11249F575040FD
S1133A708AF0E1F088234AF0EE0FFF1FBB1F661F98
S1133A80771F881F91505040A9F79E3F510570F051
S1133A9030CF9FCF5F3FECF3983EDCF3869577956C
S1133AA06795B795F795E7959F5FC1F7FE2B880F4C
S1133AB0911D9695879597F9089511F40EF41FCFEB
S1133AC045C06CDFD0F39923D9F3CEF39F57550B40
S1133AD087FF4AD00024A0E640EA9001805856951A
S1133AE0979528F4805C660F771F881F20F02617AF
S1133AF03707480730F4621B730B840B20293129E4
S1133B004A2BA69517940794202531254A2758F760
S1133B10660F771F881F20F026173707480730F4F1
S1133B20620B730B840B200D311D411DA09581F791
S1133B30B901842F9158880F9695879508959B0114
S1133B40AC0158CFB2DE880B990B08959F3F31F03A
S1133B50915020F4879577956795B795880F911DB7
S1133B609695879597F9089591505040660F771F61
S1133B70881FD2F70895DB018F939F9351D0BF9193
S1133B80AF91A29F800D911DA39F900DB29F900DA8
S1133B9011240895A1E21A2EAA1BBB1BFD010DC01E
S1133BA0AA1FBB1FEE1FFF1FA217B307E407F507E9
S1133BB020F0A21BB30BE40BF50B661F771F881FC5
S1133BC0991F1A9469F760957095809590959B015B
S1133BD0AC01BD01CF010895052E97FB16F40094A6
S1133BE00FD057FD05D0D6DF07FC02D046F408C03D
S1133BF050954095309521953F4F4F4F5F4F089515
S1133C0090958095709561957F4F8F4F9F4F089544
S1133C10EE0FFF1F881F8BBF0790F691E02D1994BC
S1133C2009D0A59F900DB49F900DA49F800D911D68
S1133C3011240895A29FB001B39FC001A39F700DEA
S1133C40811D1124911DB29F700D811D1124911DA0
S1093C500895F894FFCF73
S1133C56FF7C7C200920726F7420616274207820B6
S1133C663D200920007C7C200920726F742061624B
S1133C76742079203D20200920007C7C20092072B4
S1133C866F7420616274207A203D200920000000B0
S1133C960000D20B4A11280B420B340BB10B456EB4
S1133CA67465726564207363616C65207761732043
S1133CB66E6F742076616C69642C2076616C69641D
S1133CC62067617573732076616C75657320617204
S1133CD6653A20302E38382C20312E332C20312EC4
S1133CE6392C20322E352C20342E302C20342E37ED
S1133CF62C20352E362C20382E310000000000F200
S1133D06106E616E00696E66006F7666002E0000A6
S1133D160000009F18701844184C1860186F18009B
S9030000FC
